{
  "address": "0xb28D085c1e3d142556cCf455Ac181F0f5A3c8db3",
  "abi": [
    {
      "inputs": [
        {
          "internalType": "contract IERC20",
          "name": "tokenA_",
          "type": "address"
        },
        {
          "internalType": "contract IERC20",
          "name": "tokenB_",
          "type": "address"
        },
        {
          "internalType": "address",
          "name": "owner_",
          "type": "address"
        }
      ],
      "stateMutability": "nonpayable",
      "type": "constructor"
    },
    {
      "anonymous": false,
      "inputs": [
        {
          "indexed": true,
          "internalType": "address",
          "name": "previousOwner",
          "type": "address"
        },
        {
          "indexed": true,
          "internalType": "address",
          "name": "newOwner",
          "type": "address"
        }
      ],
      "name": "OwnershipTransferred",
      "type": "event"
    },
    {
      "inputs": [],
      "name": "harvest",
      "outputs": [],
      "stateMutability": "nonpayable",
      "type": "function"
    },
    {
      "inputs": [],
      "name": "owner",
      "outputs": [
        {
          "internalType": "address",
          "name": "",
          "type": "address"
        }
      ],
      "stateMutability": "view",
      "type": "function"
    },
    {
      "inputs": [
        {
          "internalType": "uint256",
          "name": "",
          "type": "uint256"
        }
      ],
      "name": "rate",
      "outputs": [
        {
          "internalType": "uint256",
          "name": "",
          "type": "uint256"
        }
      ],
      "stateMutability": "view",
      "type": "function"
    },
    {
      "inputs": [],
      "name": "renounceOwnership",
      "outputs": [],
      "stateMutability": "nonpayable",
      "type": "function"
    },
    {
      "inputs": [
        {
          "internalType": "uint256",
          "name": "numinator",
          "type": "uint256"
        },
        {
          "internalType": "uint256",
          "name": "denominator",
          "type": "uint256"
        }
      ],
      "name": "setRate",
      "outputs": [],
      "stateMutability": "nonpayable",
      "type": "function"
    },
    {
      "inputs": [
        {
          "internalType": "uint256",
          "name": "amount",
          "type": "uint256"
        }
      ],
      "name": "stake",
      "outputs": [],
      "stateMutability": "nonpayable",
      "type": "function"
    },
    {
      "inputs": [
        {
          "internalType": "address",
          "name": "",
          "type": "address"
        }
      ],
      "name": "stakes",
      "outputs": [
        {
          "internalType": "uint256",
          "name": "startTimestamp",
          "type": "uint256"
        },
        {
          "internalType": "uint256",
          "name": "amount",
          "type": "uint256"
        },
        {
          "internalType": "uint256",
          "name": "harvested",
          "type": "uint256"
        }
      ],
      "stateMutability": "view",
      "type": "function"
    },
    {
      "inputs": [],
      "name": "tokenA",
      "outputs": [
        {
          "internalType": "contract IERC20",
          "name": "",
          "type": "address"
        }
      ],
      "stateMutability": "view",
      "type": "function"
    },
    {
      "inputs": [],
      "name": "tokenB",
      "outputs": [
        {
          "internalType": "contract IERC20",
          "name": "",
          "type": "address"
        }
      ],
      "stateMutability": "view",
      "type": "function"
    },
    {
      "inputs": [
        {
          "internalType": "address",
          "name": "newOwner",
          "type": "address"
        }
      ],
      "name": "transferOwnership",
      "outputs": [],
      "stateMutability": "nonpayable",
      "type": "function"
    },
    {
      "inputs": [],
      "name": "unstake",
      "outputs": [],
      "stateMutability": "nonpayable",
      "type": "function"
    }
  ],
  "transactionHash": "0xa7a6018d52d87368195073afeb0fca072b845bb993b23943de4bddb444151d7e",
  "args": [
    "0x7e1935c66368f8d83c259c4fC9929Ef422D43eaD",
    "0x2Dc4FffC5c0063EC24221B99b29a25BE181b558E",
    "0x4E1602505a69Ad2De90Fe1CD65d198f60781Ad73"
  ],
  "numDeployments": 1,
  "solcInputHash": "4247d2098a339086d128636e54291775",
  "bytecode": "0x60806040526040518060400160405280600160ff168152602001606460ff168152506003906002620000339291906200032e565b503480156200004157600080fd5b5060405162001e7038038062001e70833981810160405281019062000067919062000453565b620000876200007b6200012360201b60201c565b6200012b60201b60201c565b82600160006101000a81548173ffffffffffffffffffffffffffffffffffffffff021916908373ffffffffffffffffffffffffffffffffffffffff16021790555081600260006101000a81548173ffffffffffffffffffffffffffffffffffffffff021916908373ffffffffffffffffffffffffffffffffffffffff1602179055506200011a81620001ef60201b60201c565b505050620005ca565b600033905090565b60008060009054906101000a900473ffffffffffffffffffffffffffffffffffffffff169050816000806101000a81548173ffffffffffffffffffffffffffffffffffffffff021916908373ffffffffffffffffffffffffffffffffffffffff1602179055508173ffffffffffffffffffffffffffffffffffffffff168173ffffffffffffffffffffffffffffffffffffffff167f8be0079c531659141344cd1fd0a4f28419497f9722a3daafe3b4186f6b6457e060405160405180910390a35050565b620001ff6200012360201b60201c565b73ffffffffffffffffffffffffffffffffffffffff16620002256200030560201b60201c565b73ffffffffffffffffffffffffffffffffffffffff16146200027e576040517f08c379a0000000000000000000000000000000000000000000000000000000008152600401620002759062000510565b60405180910390fd5b600073ffffffffffffffffffffffffffffffffffffffff168173ffffffffffffffffffffffffffffffffffffffff161415620002f1576040517f08c379a0000000000000000000000000000000000000000000000000000000008152600401620002e890620005a8565b60405180910390fd5b62000302816200012b60201b60201c565b50565b60008060009054906101000a900473ffffffffffffffffffffffffffffffffffffffff16905090565b82805482825590600052602060002090810192821562000372579160200282015b8281111562000371578251829060ff169055916020019190600101906200034f565b5b50905062000381919062000385565b5090565b5b80821115620003a057600081600090555060010162000386565b5090565b600080fd5b600073ffffffffffffffffffffffffffffffffffffffff82169050919050565b6000620003d682620003a9565b9050919050565b6000620003ea82620003c9565b9050919050565b620003fc81620003dd565b81146200040857600080fd5b50565b6000815190506200041c81620003f1565b92915050565b6200042d81620003c9565b81146200043957600080fd5b50565b6000815190506200044d8162000422565b92915050565b6000806000606084860312156200046f576200046e620003a4565b5b60006200047f868287016200040b565b935050602062000492868287016200040b565b9250506040620004a5868287016200043c565b9150509250925092565b600082825260208201905092915050565b7f4f776e61626c653a2063616c6c6572206973206e6f7420746865206f776e6572600082015250565b6000620004f8602083620004af565b91506200050582620004c0565b602082019050919050565b600060208201905081810360008301526200052b81620004e9565b9050919050565b7f4f776e61626c653a206e6577206f776e657220697320746865207a65726f206160008201527f6464726573730000000000000000000000000000000000000000000000000000602082015250565b600062000590602683620004af565b91506200059d8262000532565b604082019050919050565b60006020820190508181036000830152620005c38162000581565b9050919050565b61189680620005da6000396000f3fe608060405234801561001057600080fd5b50600436106100a95760003560e01c80635f64b55b116100715780635f64b55b1461012e578063715018a61461014c5780638da5cb5b14610156578063a694fc3a14610174578063e7ee6ad614610190578063f2fde38b146101c0576100a9565b80630fc63d10146100ae57806316934fc4146100cc5780632def6620146100fe5780634641257d1461010857806346df2ccb14610112575b600080fd5b6100b66101dc565b6040516100c39190610f13565b60405180910390f35b6100e660048036038101906100e19190610f71565b610202565b6040516100f593929190610fb7565b60405180910390f35b61010661022c565b005b6101106103a5565b005b61012c6004803603810190610127919061101a565b61063e565b005b610136610706565b6040516101439190610f13565b60405180910390f35b61015461072c565b005b61015e6107b4565b60405161016b9190611069565b60405180910390f35b61018e60048036038101906101899190611084565b6107dd565b005b6101aa60048036038101906101a59190611084565b610930565b6040516101b791906110b1565b60405180910390f35b6101da60048036038101906101d59190610f71565b610954565b005b600160009054906101000a900473ffffffffffffffffffffffffffffffffffffffff1681565b60046020528060005260406000206000915090508060000154908060010154908060020154905083565b6000600460003373ffffffffffffffffffffffffffffffffffffffff1673ffffffffffffffffffffffffffffffffffffffff1681526020019081526020016000206000015414156102b2576040517f08c379a00000000000000000000000000000000000000000000000000000000081526004016102a990611129565b60405180910390fd5b6102ba6103a5565b61034933600460003373ffffffffffffffffffffffffffffffffffffffff1673ffffffffffffffffffffffffffffffffffffffff16815260200190815260200160002060010154600160009054906101000a900473ffffffffffffffffffffffffffffffffffffffff1673ffffffffffffffffffffffffffffffffffffffff16610a4c9092919063ffffffff16565b600460003373ffffffffffffffffffffffffffffffffffffffff1673ffffffffffffffffffffffffffffffffffffffff168152602001908152602001600020600080820160009055600182016000905560028201600090555050565b6000600460003373ffffffffffffffffffffffffffffffffffffffff1673ffffffffffffffffffffffffffffffffffffffff16815260200190815260200160002060000154141561042b576040517f08c379a000000000000000000000000000000000000000000000000000000000815260040161042290611129565b60405180910390fd5b6000600460003373ffffffffffffffffffffffffffffffffffffffff1673ffffffffffffffffffffffffffffffffffffffff168152602001908152602001600020905060008160020154600360018154811061048a57610489611149565b5b906000526020600020015460036000815481106104aa576104a9611149565b5b90600052602060002001548460000154426104c591906111a7565b85600101546104d491906111db565b6104de91906111db565b6104e89190611264565b6104f291906111a7565b9050808260020160008282546105089190611295565b9250508190555080600260009054906101000a900473ffffffffffffffffffffffffffffffffffffffff1673ffffffffffffffffffffffffffffffffffffffff166370a08231306040518263ffffffff1660e01b815260040161056b9190611069565b602060405180830381865afa158015610588573d6000803e3d6000fd5b505050506040513d601f19601f820116820180604052508101906105ac9190611300565b11156105ed576040517f08c379a00000000000000000000000000000000000000000000000000000000081526004016105e490611379565b60405180910390fd5b61063a3382600260009054906101000a900473ffffffffffffffffffffffffffffffffffffffff1673ffffffffffffffffffffffffffffffffffffffff16610a4c9092919063ffffffff16565b5050565b610646610ad2565b73ffffffffffffffffffffffffffffffffffffffff166106646107b4565b73ffffffffffffffffffffffffffffffffffffffff16146106ba576040517f08c379a00000000000000000000000000000000000000000000000000000000081526004016106b1906113e5565b60405180910390fd5b8160036000815481106106d0576106cf611149565b5b90600052602060002001819055508060036001815481106106f4576106f3611149565b5b90600052602060002001819055505050565b600260009054906101000a900473ffffffffffffffffffffffffffffffffffffffff1681565b610734610ad2565b73ffffffffffffffffffffffffffffffffffffffff166107526107b4565b73ffffffffffffffffffffffffffffffffffffffff16146107a8576040517f08c379a000000000000000000000000000000000000000000000000000000000815260040161079f906113e5565b60405180910390fd5b6107b26000610ada565b565b60008060009054906101000a900473ffffffffffffffffffffffffffffffffffffffff16905090565b6000600460003373ffffffffffffffffffffffffffffffffffffffff1673ffffffffffffffffffffffffffffffffffffffff1681526020019081526020016000206000015414610862576040517f08c379a000000000000000000000000000000000000000000000000000000000815260040161085990611451565b60405180910390fd5b6108b1333083600160009054906101000a900473ffffffffffffffffffffffffffffffffffffffff1673ffffffffffffffffffffffffffffffffffffffff16610b9e909392919063ffffffff16565b60405180606001604052804281526020018281526020016000815250600460003373ffffffffffffffffffffffffffffffffffffffff1673ffffffffffffffffffffffffffffffffffffffff16815260200190815260200160002060008201518160000155602082015181600101556040820151816002015590505050565b6003818154811061094057600080fd5b906000526020600020016000915090505481565b61095c610ad2565b73ffffffffffffffffffffffffffffffffffffffff1661097a6107b4565b73ffffffffffffffffffffffffffffffffffffffff16146109d0576040517f08c379a00000000000000000000000000000000000000000000000000000000081526004016109c7906113e5565b60405180910390fd5b600073ffffffffffffffffffffffffffffffffffffffff168173ffffffffffffffffffffffffffffffffffffffff161415610a40576040517f08c379a0000000000000000000000000000000000000000000000000000000008152600401610a37906114e3565b60405180910390fd5b610a4981610ada565b50565b610acd8363a9059cbb60e01b8484604051602401610a6b929190611503565b604051602081830303815290604052907bffffffffffffffffffffffffffffffffffffffffffffffffffffffff19166020820180517bffffffffffffffffffffffffffffffffffffffffffffffffffffffff8381831617835250505050610c27565b505050565b600033905090565b60008060009054906101000a900473ffffffffffffffffffffffffffffffffffffffff169050816000806101000a81548173ffffffffffffffffffffffffffffffffffffffff021916908373ffffffffffffffffffffffffffffffffffffffff1602179055508173ffffffffffffffffffffffffffffffffffffffff168173ffffffffffffffffffffffffffffffffffffffff167f8be0079c531659141344cd1fd0a4f28419497f9722a3daafe3b4186f6b6457e060405160405180910390a35050565b610c21846323b872dd60e01b858585604051602401610bbf9392919061152c565b604051602081830303815290604052907bffffffffffffffffffffffffffffffffffffffffffffffffffffffff19166020820180517bffffffffffffffffffffffffffffffffffffffffffffffffffffffff8381831617835250505050610c27565b50505050565b6000610c89826040518060400160405280602081526020017f5361666545524332303a206c6f772d6c6576656c2063616c6c206661696c65648152508573ffffffffffffffffffffffffffffffffffffffff16610cee9092919063ffffffff16565b9050600081511115610ce95780806020019051810190610ca9919061159b565b610ce8576040517f08c379a0000000000000000000000000000000000000000000000000000000008152600401610cdf9061163a565b60405180910390fd5b5b505050565b6060610cfd8484600085610d06565b90509392505050565b606082471015610d4b576040517f08c379a0000000000000000000000000000000000000000000000000000000008152600401610d42906116cc565b60405180910390fd5b610d5485610e1a565b610d93576040517f08c379a0000000000000000000000000000000000000000000000000000000008152600401610d8a90611738565b60405180910390fd5b6000808673ffffffffffffffffffffffffffffffffffffffff168587604051610dbc91906117d2565b60006040518083038185875af1925050503d8060008114610df9576040519150601f19603f3d011682016040523d82523d6000602084013e610dfe565b606091505b5091509150610e0e828286610e2d565b92505050949350505050565b600080823b905060008111915050919050565b60608315610e3d57829050610e8d565b600083511115610e505782518084602001fd5b816040517f08c379a0000000000000000000000000000000000000000000000000000000008152600401610e84919061183e565b60405180910390fd5b9392505050565b600073ffffffffffffffffffffffffffffffffffffffff82169050919050565b6000819050919050565b6000610ed9610ed4610ecf84610e94565b610eb4565b610e94565b9050919050565b6000610eeb82610ebe565b9050919050565b6000610efd82610ee0565b9050919050565b610f0d81610ef2565b82525050565b6000602082019050610f286000830184610f04565b92915050565b600080fd5b6000610f3e82610e94565b9050919050565b610f4e81610f33565b8114610f5957600080fd5b50565b600081359050610f6b81610f45565b92915050565b600060208284031215610f8757610f86610f2e565b5b6000610f9584828501610f5c565b91505092915050565b6000819050919050565b610fb181610f9e565b82525050565b6000606082019050610fcc6000830186610fa8565b610fd96020830185610fa8565b610fe66040830184610fa8565b949350505050565b610ff781610f9e565b811461100257600080fd5b50565b60008135905061101481610fee565b92915050565b6000806040838503121561103157611030610f2e565b5b600061103f85828601611005565b925050602061105085828601611005565b9150509250929050565b61106381610f33565b82525050565b600060208201905061107e600083018461105a565b92915050565b60006020828403121561109a57611099610f2e565b5b60006110a884828501611005565b91505092915050565b60006020820190506110c66000830184610fa8565b92915050565b600082825260208201905092915050565b7f596f7520646f6e74206861766520616e79207374616b65730000000000000000600082015250565b60006111136018836110cc565b915061111e826110dd565b602082019050919050565b6000602082019050818103600083015261114281611106565b9050919050565b7f4e487b7100000000000000000000000000000000000000000000000000000000600052603260045260246000fd5b7f4e487b7100000000000000000000000000000000000000000000000000000000600052601160045260246000fd5b60006111b282610f9e565b91506111bd83610f9e565b9250828210156111d0576111cf611178565b5b828203905092915050565b60006111e682610f9e565b91506111f183610f9e565b9250817fffffffffffffffffffffffffffffffffffffffffffffffffffffffffffffffff048311821515161561122a57611229611178565b5b828202905092915050565b7f4e487b7100000000000000000000000000000000000000000000000000000000600052601260045260246000fd5b600061126f82610f9e565b915061127a83610f9e565b92508261128a57611289611235565b5b828204905092915050565b60006112a082610f9e565b91506112ab83610f9e565b9250827fffffffffffffffffffffffffffffffffffffffffffffffffffffffffffffffff038211156112e0576112df611178565b5b828201905092915050565b6000815190506112fa81610fee565b92915050565b60006020828403121561131657611315610f2e565b5b6000611324848285016112eb565b91505092915050565b7f4e6f7420656e6f7567682062616c616e6365206f6e20636f6e74726163740000600082015250565b6000611363601e836110cc565b915061136e8261132d565b602082019050919050565b6000602082019050818103600083015261139281611356565b9050919050565b7f4f776e61626c653a2063616c6c6572206973206e6f7420746865206f776e6572600082015250565b60006113cf6020836110cc565b91506113da82611399565b602082019050919050565b600060208201905081810360008301526113fe816113c2565b9050919050565b7f596f75206861766520616c7265616479207374616b6564000000000000000000600082015250565b600061143b6017836110cc565b915061144682611405565b602082019050919050565b6000602082019050818103600083015261146a8161142e565b9050919050565b7f4f776e61626c653a206e6577206f776e657220697320746865207a65726f206160008201527f6464726573730000000000000000000000000000000000000000000000000000602082015250565b60006114cd6026836110cc565b91506114d882611471565b604082019050919050565b600060208201905081810360008301526114fc816114c0565b9050919050565b6000604082019050611518600083018561105a565b6115256020830184610fa8565b9392505050565b6000606082019050611541600083018661105a565b61154e602083018561105a565b61155b6040830184610fa8565b949350505050565b60008115159050919050565b61157881611563565b811461158357600080fd5b50565b6000815190506115958161156f565b92915050565b6000602082840312156115b1576115b0610f2e565b5b60006115bf84828501611586565b91505092915050565b7f5361666545524332303a204552433230206f7065726174696f6e20646964206e60008201527f6f74207375636365656400000000000000000000000000000000000000000000602082015250565b6000611624602a836110cc565b915061162f826115c8565b604082019050919050565b6000602082019050818103600083015261165381611617565b9050919050565b7f416464726573733a20696e73756666696369656e742062616c616e636520666f60008201527f722063616c6c0000000000000000000000000000000000000000000000000000602082015250565b60006116b66026836110cc565b91506116c18261165a565b604082019050919050565b600060208201905081810360008301526116e5816116a9565b9050919050565b7f416464726573733a2063616c6c20746f206e6f6e2d636f6e7472616374000000600082015250565b6000611722601d836110cc565b915061172d826116ec565b602082019050919050565b6000602082019050818103600083015261175181611715565b9050919050565b600081519050919050565b600081905092915050565b60005b8381101561178c578082015181840152602081019050611771565b8381111561179b576000848401525b50505050565b60006117ac82611758565b6117b68185611763565b93506117c681856020860161176e565b80840191505092915050565b60006117de82846117a1565b915081905092915050565b600081519050919050565b6000601f19601f8301169050919050565b6000611810826117e9565b61181a81856110cc565b935061182a81856020860161176e565b611833816117f4565b840191505092915050565b600060208201905081810360008301526118588184611805565b90509291505056fea26469706673582212206dab255cd97876f27b615a43be70509a83c4bb32b0556b2af02ba1626354a71164736f6c634300080b0033",
  "devdoc": {
    "kind": "dev",
    "methods": {
      "harvest()": {
        "details": "harvets for user all collected TokenB"
      },
      "owner()": {
        "details": "Returns the address of the current owner."
      },
      "renounceOwnership()": {
        "details": "Leaves the contract without owner. It will not be possible to call `onlyOwner` functions anymore. Can only be called by the current owner. NOTE: Renouncing ownership will leave the contract without an owner, thereby removing any functionality that is only available to the owner."
      },
      "setRate(uint256,uint256)": {
        "details": "sets rate for staking only by owner"
      },
      "stake(uint256)": {
        "details": "stakes for user TokenA",
        "params": {
          "amount": "amount of TokenA to be stake"
        }
      },
      "transferOwnership(address)": {
        "details": "Transfers ownership of the contract to a new account (`newOwner`). Can only be called by the current owner."
      },
      "unstake()": {
        "details": "returns all staked TokenA"
      }
    },
    "version": 1
  },
  "userdoc": {
    "kind": "user",
    "methods": {},
    "version": 1
  },
  "storageLayout": {
    "storage": [
      {
        "astId": 7,
        "contract": "contracts/Staking.sol:Staking",
        "label": "_owner",
        "offset": 0,
        "slot": "0",
        "type": "t_address"
      },
      {
        "astId": 1310,
        "contract": "contracts/Staking.sol:Staking",
        "label": "tokenA",
        "offset": 0,
        "slot": "1",
        "type": "t_contract(IERC20)728"
      },
      {
        "astId": 1313,
        "contract": "contracts/Staking.sol:Staking",
        "label": "tokenB",
        "offset": 0,
        "slot": "2",
        "type": "t_contract(IERC20)728"
      },
      {
        "astId": 1319,
        "contract": "contracts/Staking.sol:Staking",
        "label": "rate",
        "offset": 0,
        "slot": "3",
        "type": "t_array(t_uint256)dyn_storage"
      },
      {
        "astId": 1331,
        "contract": "contracts/Staking.sol:Staking",
        "label": "stakes",
        "offset": 0,
        "slot": "4",
        "type": "t_mapping(t_address,t_struct(Stake)1326_storage)"
      }
    ],
    "types": {
      "t_address": {
        "encoding": "inplace",
        "label": "address",
        "numberOfBytes": "20"
      },
      "t_array(t_uint256)dyn_storage": {
        "base": "t_uint256",
        "encoding": "dynamic_array",
        "label": "uint256[]",
        "numberOfBytes": "32"
      },
      "t_contract(IERC20)728": {
        "encoding": "inplace",
        "label": "contract IERC20",
        "numberOfBytes": "20"
      },
      "t_mapping(t_address,t_struct(Stake)1326_storage)": {
        "encoding": "mapping",
        "key": "t_address",
        "label": "mapping(address => struct Staking.Stake)",
        "numberOfBytes": "32",
        "value": "t_struct(Stake)1326_storage"
      },
      "t_struct(Stake)1326_storage": {
        "encoding": "inplace",
        "label": "struct Staking.Stake",
        "members": [
          {
            "astId": 1321,
            "contract": "contracts/Staking.sol:Staking",
            "label": "startTimestamp",
            "offset": 0,
            "slot": "0",
            "type": "t_uint256"
          },
          {
            "astId": 1323,
            "contract": "contracts/Staking.sol:Staking",
            "label": "amount",
            "offset": 0,
            "slot": "1",
            "type": "t_uint256"
          },
          {
            "astId": 1325,
            "contract": "contracts/Staking.sol:Staking",
            "label": "harvested",
            "offset": 0,
            "slot": "2",
            "type": "t_uint256"
          }
        ],
        "numberOfBytes": "96"
      },
      "t_uint256": {
        "encoding": "inplace",
        "label": "uint256",
        "numberOfBytes": "32"
      }
    }
  }
}